:020000040800F2
:10000000F80C0020791B0008810500088305000812
:10001000870500088B0500088F0500080000000018
:100020000000000000000000000000009305000830
:1000300095050008000000009705000899050008D4
:10004000931B0008931B0008931B0008931B0008D8
:10005000931B0008931B0008931B0008931B0008C8
:10006000931B0008931B0008931B0008931B0008B8
:10007000931B0008931B0008931B000851110008F4
:10008000931B0008931B0008931B0008931B000898
:10009000931B0008931B0008931B0008931B000888
:1000A000931B000801100008931B0008931B000815
:1000B000931B0008931B0008390F0008931B0008CE
:1000C000931B0008931B0008931B0008931B000858
:1000D000931B0008E31A0008931B0008931B0008F9
:1000E000931B0008931B0008931B0008931B000838
:1000F000931B0008931B0008931B0008931B000828
:10010000931B0008931B0008931B0008931B000817
:10011000931B0008931B0008931B0008931B000807
:10012000931B0008931B0008931B0008931B0008F7
:1001300000F002F800F06AF80AA090E8000C82448F
:100140008344AAF10107DA4501D100F05FF8AFF26C
:10015000090EBAE80F0013F0010F18BFFB1A43F0A5
:1001600001031847E8740000087500000A444FF0C6
:10017000000C10F8013B13F0070408BF10F8014B06
:100180001D1108BF10F8015B641E05D010F8016B4B
:10019000641E01F8016BF9D113F0080F1EBF10F8AF
:1001A000014BAD1C0C1B09D16D1E58BF01F801CBD2
:1001B000FAD505E014F8016B01F8016B6D1EF9D555
:1001C0009142D6D37047000000230024002500266A
:1001D000103A28BF78C1FBD8520728BF30C148BFAA
:1001E0000B607047662906F0B284642903F04C83E3
:1001F000002070471FB503F0BFFE0400002000215F
:1002000005F0AAFBE0601FBD10B510BD03F0B8FFFC
:100210001146FFF7EFFF00F0E8F803F0D6FF03B454
:10022000FFF7F2FF03BC01F0CBFB000070B5AF4855
:10023000007800284FD0AD48005D552842D1AB4929
:10024000601C085C53283DD1084603F0E0FB001B0E
:100250000A2837D3A549A01C0144A5480A680260B2
:10026000496841600146B1F9000006F041FA0646CE
:100270004FF08E4106F05EF905469E4906F064FA9D
:100280009D4908609A49B1F9020006F031FA064624
:100290004FF08E4106F04EF90546964906F054FAA5
:1002A000964908609249B1F9040006F021FA064621
:1002B0004FF08E4106F03EF905468E4906F044FAAD
:1002C0008F49086000218F4803F043FA0B218D48C5
:1002D00000F0B0FE00BF70BD10B58B48007800285C
:1002E00072DD002478E08948005D092862D006DCD0
:1002F000032809D0052859D007286BD11EE00B2808
:1003000038D00F2866D159E08148006808B901202B
:1003100000E000207E4908607E48D0F8B00130B18E
:1003200001237DA21946002000F016FC05E0012300
:100330007BA21946002000F00FFC4BE074480838FF
:10034000006808B9012000E0002071490839086000
:100350007048D0F8A80130B1012373A20221002017
:1003600000F0FAFB05E0012370A20221002000F05A
:10037000F3FB2FE06648001F006808B9012000E089
:1003800000206349091F08606248D0F8AC0130B111
:10039000012361A21946042000F0DEFB05E00123E1
:1003A00063A21946022000F0D7FB13E00120614947
:1003B00008700FE00120604908700BE054480C38C9
:1003C000006810B9012001E00EE0002050490C390E
:1003D000086000BF00BF641C4B480078844282DB89
:1003E00000204949087000BF10BD8AB001F07EFAB4
:1003F00001F064F800F02CFB00F022FBFF2000F07D
:1004000002FB40F267114FF4C87000F0A9FC00F045
:10041000B2FF01F0EBF84949494801F072F84FF496
:10042000C871484803F082F84FF4C871454803F09A
:1004300081F80120404908703E4908700022424975
:1004400003A801F0ABF9049805F0E0FF8046002214
:100450003E4B05F001FD064600223D4B05F0C4FA77
:10046000044605F0C9FC3B490860039805F0CEFF3F
:1004700080460022354B05F0EFFC06460022364B45
:1004800005F0B2FA044605F0B7FC344908602BE0E9
:1004900033480068009033480368334833A102684A
:1004A00005A803F0B5F9012305AA0621002000F0F4
:1004B00053FB049805F0AAFF04460D46039805F087
:1004C000A5FF064632460B462BA105A8CDE90045FF
:1004D00003F09EF9012305AA0421002000F03CFB53
:1004E00000F081FFFFF7F8FED2E70000840500204E
:1004F0000400002000003443280100202C010020CB
:10050000300100205800024042010020C0050020B8
:10051000B0012242000022426F6666200000000007
:100520006F6E2020000000002B0000002D00000056
:100530006F6E2000580100205A0100200000484240
:1005400000001643000800400000484300004E40F1
:100550000010A8405C01002000E8B24060010020CB
:100560004C01002048010020440100202532642075
:1005700025356420253564002566202566000000A9
:10058000704700BFFEE700BFFEE700BFFEE700BF09
:10059000FEE7704770477047704700000CB50020B9
:1005A000019000906C48006840F480306A4908600F
:1005B00000BF6948006800F4003000900198401CBA
:1005C0000190009818B90198B0F5A06FF1D1624878
:1005D000006800F4003010B10120009001E000201C
:1005E00000900098012843D15C48006840F010005A
:1005F0005A4908600846006820F003000860084671
:10060000006840F002000860534840685249486062
:100610000846406848600846406840F4806048608A
:100620000846406820F47C1048600846406840F462
:10063000E81048600846006840F08070086000BF1D
:100640004548006800F000700028F9D04248406832
:1006500020F00300404948600846406840F002002E
:10066000486000BF3C48406800F00C000828F9D101
:100670000CBD10B5FFF792FF10BD10B536480068ED
:1006800040F0010034490860084640683449084099
:100690003149486008460068324908402E490860E0
:1006A0000846006820F4802008600846406820F46E
:1006B000FE0048604FF41F008860FFF7DAFF4FF03C
:1006C00000602949086010BD10B5002100200022FB
:1006D000214B5B6803F00C0121B1042906D00829E5
:1006E00028D107E0214B224C236027E01F4B204CF0
:1006F000236023E0184B5B6803F47010164B5B68B3
:1007000003F48032022303EB904022B9194B434398
:10071000174C23600DE0104B5B6803F4003323B1EA
:10072000144B4343124C236003E0104B4343104CE3
:10073000236003E00D4B0E4C236000BF00BF064B4F
:100740005B68C3F303130C4CE15C094B1B68CB40A3
:10075000074C236010BD0000001002400020024042
:100760000000FFF8FFFFF6FE08ED00E000127A003F
:100770001400002000093D001800002010B50121E0
:10078000102001F035FD4FF48040FC490880102016
:10079000C87003208870FA4801F06EFA0121102019
:1007A00001F026FD4FF40040F44908801020C87085
:1007B00003208870F24801F05FFA10BD10B54FF4C5
:1007C0008040EE4908804820C870ED4801F054FA96
:1007D00010BD10B54FF48040E84908801020C87063
:1007E000E74801F049FA10BD10B5FFF7F2FF01200C
:1007F000E4490860E449C1F8B801022001F08FF82B
:100800000020E049091F0860022001F088F800205C
:10081000DD49C1F8BC0110BD10B5FFF7DAFF0120BA
:10082000D84908600020D849C1F8B801022001F079
:1008300076F80120D349091F0860022001F06FF803
:1008400010BD10B5FFF7C5FF0020CE490860CE49A6
:10085000C1F8B801022001F062F80120C94908601E
:10086000022001F05CF80020C749C1F8BC0110BDAE
:1008700010B5FFF7AEFF0020C24908600120C24951
:10088000C1F8B801022001F04AF80120BD49086012
:10089000022001F044F80020BB49C1F8BC0110BDA2
:1008A00010B50024FFF78AFF0120B649091F086030
:1008B000B549C1F8BC01022001F031F807E0601C25
:1008C000C4B2FA2C03DDFFF7A7FF012010BDAD482D
:1008D000843800680028F2D1AA49086000BFF5E713
:1008E00070B50446FFF775FF0020A6490860002593
:1008F0000EE0E009A349091F08606006040E01200C
:10090000A149C1F8BC0100209E490860681CC5B21D
:10091000082DEEDB70BD70B504460D461646FFF798
:1009200063FFFFF756FF2046FFF7DAFFFFF7B8FF38
:100930002846FFF7D5FFFFF7B3FF3046FFF7D0FF9C
:10094000FFF7AEFFFFF768FF70BD70B505460024E6
:10095000FFF734FF002616E000208A4908600220D5
:1009600000F0DDFF01208849C1F8BC016006040EDB
:1009700084488438006808B1601CC4B2012000F0CB
:10098000CEFF701CC6B2082EE6DB15B9FFF770FF6C
:1009900001E0FFF756FF204670BD2DE9F041044607
:1009A0000D461646FFF720FF2046FFF799FFFFF799
:1009B00077FF2846FFF794FFFFF772FFFFF714FF5A
:1009C000FFF7FCFE44F00100FFF78AFFFFF768FF26
:1009D0003046FFF7BAFF0746FFF762FFFFF71CFF3D
:1009E0003846BDE8F08110B5044622460021782043
:1009F000FFF791FF10BD10B5044622464021782034
:100A0000FFF789FF10BD70B50646002415E004F11C
:100A1000B001C8B2FFF7E7FF0020FFF7E4FF1020A6
:100A2000FFF7E1FF002504E03046FFF7E4FF681C14
:100A3000C5B2802DF8DB601CC4B2082CE7DB70BDAA
:100A400010B51420FFF7CFFFAF20FFF7CCFF10BD8C
:100A500010B5642000F087FFFFF790FEAE20FFF78F
:100A6000C2FF2020FFF7BFFF1020FFF7BCFFB02020
:100A7000FFF7B9FFC820FFF7B6FF0020FFF7B3FF6D
:100A80001020FFF7B0FF4020FFF7ADFF8120FFF7F8
:100A9000AAFFFF20FFF7A7FFA120FFF7A4FFA620D2
:100AA000FFF7A1FFA820FFF79EFF3F20FFF79BFF66
:100AB000A420FFF798FFD320FFF795FF0020FFF752
:100AC00092FFD520FFF78FFFF020FFF78CFFD92092
:100AD000FFF789FF2220FFF786FFDA20FFF783FF69
:100AE0001220FFF780FFDB20FFF77DFF2020FFF7BC
:100AF0007AFF8D20FFF777FF1420FFF774FFAF20F8
:100B0000FFF771FFFFF79CFF0020FFF77CFF10BD90
:100B100070B504460D4605F1B001C8B2FFF763FF9A
:100B2000102141EA1410FFF75EFF04F00F0141F0BD
:100B30000100FFF758FF70BD10B50020FFF763FFFD
:100B400010BD10B58D20FFF74EFF1020FFF74BFFB3
:100B5000AE20FFF748FF10BD2DE9F0470646894655
:100B600017469A464FF0000800240025BAF1010FFD
:100B70000CD0BAF1020F67D12EE00000180100205E
:100B800000100140BC0122420000224220E0785DBA
:100B9000203800F0FF087E2E04DD002609F1010058
:100BA00000F0FF0949463046FFF7B2FF002409E094
:100BB00008EB4801664A02EB4101085DFFF71BFFA5
:100BC000601CC4B2062CF3DBB01DC6B2681CC5B2F3
:100BD000785D0028DBD137E032E0785D203800F026
:100BE000FF08782E04DD002609F1010000F0FF095E
:100BF00049463046FFF78CFF002407E004EB08115C
:100C0000544A505CFFF7F7FE601CC4B2082CF5DBB9
:100C100009F10100C1B23046FFF77AFF002408E075
:100C200004EB081108314B4A505CFFF7E4FE601CEE
:100C3000C4B2082CF4DB06F10800C6B2681CC5B2C9
:100C4000785D0028C9D100BF00BFBDE8F0872DE95D
:100C5000F04180460E46174600247D01314640464D
:100C6000FFF756FF00BF06E03B49485DFFF7C3FEB4
:100C70006D1C601CC4B2102CF6DB701CC1B2404667
:100C8000FFF746FF002406E03349485DFFF7B3FE57
:100C90006D1C601CC4B2102CF6DBBDE8F0812DE9A0
:100CA000F05F06460F4690461C46DDF828A04FF040
:100CB000000BE11704EB5171C910A4EBC10131B96C
:100CC0002046E11704EB5171C1F3C70506E0204649
:100CD000E11704EB5171C910491CCDB23D4614E037
:100CE00029463046FFF714FFB1460AE059460BF19A
:100CF000010B1AF80100FFF77EFE09F1010000F078
:100D0000FF09C145F2DB681CC5B2A542E8DBBDE8BE
:100D1000F09F70B5002418E004F1B001C8B2FFF7ED
:100D200062FE0020FFF75FFE1020FFF75CFE00254B
:100D300007E00A4901EBC501085DFFF754FE681C96
:100D4000C5B2802DF5DB601CC4B2082CE4DB70BD9D
:100D50008E6C0008B66E0008280000208401002078
:100D600030B589B005460C460121042001F04DFA4A
:100D70000121082001F03CFAADF81C50ADF81840F4
:100D80000020ADF81E00ADF81A0006A9A24801F037
:100D9000D9FD01221146A04802F04BF91E208DF822
:100DA000140003208DF815008DF8160001208DF831
:100DB000170005A801F089FC4FF47070ADF8000031
:100DC00018208DF8030003208DF80200694693482F
:100DD00000F052FF7020ADF804000120ADF80600CD
:100DE0000020ADF80A00ADF80C0001A98A4801F016
:100DF000E6FD01A9884801F024FE01A9864801F01A
:100E00006DFE01A9844801F0B4FE0821824802F079
:100E100025FA0821804802F02AFA08217E4802F0CB
:100E200033FA08217C4802F038FA01217A4802F0AE
:100E3000E5F90121784802F0E1F809B030BD30B59C
:100E400089B005460C460121C80201F0D1F9012103
:100E5000042001F0CDF94FF42060ADF820001820F7
:100E60008DF8230003208DF8220008A96C4800F0BB
:100E700003FFADF81850ADF814400020ADF81A008B
:100E8000ADF8160005A9674801F05CFD6020ADF8DB
:100E900004000120ADF806000020ADF80A00ADF80E
:100EA0000C0001A95F4801F0CCFD01A95D4801F0EB
:100EB00060FE01215B4802F0ADF80821594802F0BC
:100EC000D6F90821574802F0E8F90121554802F007
:100ED00095F90121534802F091F809B030BD7FB572
:100EE00005460C460121042001F08FF9ADF80850A9
:100EF000ADF804400020ADF80A00ADF8060001A9E5
:100F0000454801F01FFD01221146434802F091F8C7
:100F10001E208DF8000000208DF8010003208DF8C0
:100F2000020001208DF80300684601F0CEFB01218C
:100F3000394802F063F87FBD10B50121364802F050
:100F400026FB38B10121344802F032FB00F0ACFB43
:100F500000F061FB10BD7FB504460D460121C802BB
:100F600001F046F9ADF80840681E80B2ADF8040003
:100F70000020ADF80A00ADF806008DF80C0001A9BC
:100F8000284801F0DFFC0121264802F0FDFA012289
:100F90004121244802F04DF819208DF8000000206E
:100FA0008DF801008DF8020001208DF803006846DD
:100FB00001F08BFB01211B4802F020F87FBD2DE9D9
:100FC000F047044618480168204605F04BFD81466D
:100FD00016480168484605F0B7FB07461448016803
:100FE000204605F0B1FB8046394605F03BFA06463F
:100FF00005F062FB05460C4804602846BDE8F08712
:1010000010B50121074802F0C2FA18B101210548C4
:1010100002F0CEFA10BD000000080040000C0140B4
:1010200000080140002C01403C0100203801002054
:101030003401002070B504460D460021204602F020
:1010400088FB2946204602F099FB0121204602F048
:1010500080FB70BD2DE9F0418CB080460C461546F2
:101060001E46129F0121084601F0B5F8204602F005
:10107000A3FA019502960020039004970590802022
:10108000069000200790089009904FF480500A9035
:1010900000200B9001A9204602F030FB01214046C0
:1010A00001F0D9F90121204602F053FB39462046D0
:1010B000FFF7C0FF0CB0BDE8F0812DE9F0418CB026
:1010C00005460E4617461C4605F104080121084650
:1010D00001F081F84FF4C06001F0F2FA0F208DF8B2
:1010E000000001208DF801008DF802008DF803004A
:1010F000684601F0EAFA304602F05EFACDF8048064
:101100000297002003900494059080200690002010
:101110000790089009904FF480500A9000200B909F
:1011200001A9304602F0EAFA0121284601F093F9BC
:1011300001220221304602F018FB0121304602F064
:1011400008FB21463046FFF775FF0CB0BDE8F08183
:1011500010B54FF4003002F036FB40B100200449D6
:101160000860FFF763F84FF4803002F040FB10BDD9
:10117000000000200146612914D009DCA1F14100E2
:10118000072823D2DFE800F00D101316191C1F00EA
:10119000A1F16200062819D2DFE800F0070A0D105D
:1011A000131600BFB648704700BFB648FBE700BF44
:1011B000B548F8E700BFB548F5E700BFB448F2E727
:1011C00000BFB448EFE700BFB348ECE700BF00BF83
:1011D000E9E7F8B506460D46ADF80050612E14D08B
:1011E00009DCA6F1410007283FD2DFE800F00D142A
:1011F0001B2229303700A6F16200062835D2DFE82D
:1012000000F00B121920272E00BF0121042000F04E
:10121000EFFF9B4C29E000BF0121082000F0E8FF10
:10122000984C22E000BF0121102000F0E1FF964C15
:101230001BE000BF0121202000F0DAFF934C14E0F6
:1012400000BF0121402000F0D3FF914C0DE000BF12
:101250000121802000F0CCFF8E4C06E000BF012170
:10126000080200F0C5FF8C4C00BF00BF8B488C49C2
:10127000097800EB81004580894801780078401C9E
:10128000874A1070854800F8216028208DF80300F7
:1012900003208DF802006946204600F0EDFCF8BD01
:1012A000F8B506460D46ADF80050612E14D009DCA5
:1012B000A6F1410007283FD2DFE800F00D141B2201
:1012C00029303700A6F16200062835D2DFE800F0A9
:1012D0000B121920272E00BF0121042000F088FFE7
:1012E000674C29E000BF0121082000F081FF654C18
:1012F00022E000BF0121102000F07AFF624C1BE0C9
:1013000000BF0121202000F073FF604C14E000BFFB
:101310000121402000F06CFF5D4C0DE000BF012179
:10132000802000F065FF5B4C06E000BF0121080251
:1013300000F05EFF584C00BF00BF5A485A49097878
:1013400000EB81004580584801780078401C564ADF
:101350001070544800F8216010208DF8030003201D
:101360008DF802006946204600F086FC294620469A
:1013700000F031FDF8BD10B501216320FFF790FFAB
:1013800004216320FFF78CFF01216120FFF788FF14
:1013900004216120FFF784FF10216120FFF719FF6E
:1013A00040216120FFF715FF10216320FFF711FF97
:1013B00001216220FFF70DFF10BD30B53B4A02EB63
:1013C0008002525C032A0DD101EB8002384B1A6077
:1013D0001A461378374A14781278521C354D2A7001
:1013E000354A135530BD70B5002446E02D4911F83B
:1013F0002400FFF7BFFE06462A4800EB8400418820
:10140000304600F0E6FC002527E0244911F82500CD
:10141000FFF7B0FE0646214800EB850041883046C4
:1014200000F0BDFC78B1214800EB8400405DFA2853
:101430000ED01E4800EB8400405D401C1B4901EBB0
:101440008401485504E00020184901EB8401485507
:1014500029462046FFF7B1FF6D1C042DD5DB11494D
:1014600011F82400FFF786FE06460E4800EB8400C4
:101470004188304600F0AFFC641C042CB6DB70BD24
:1014800000080140000C0140001001400014014020
:1014900000180140001C014000200140B005002060
:1014A00041010020A00500204001002090050020FF
:1014B0004401002042010020C005002008B50121A0
:1014C000102000F095FE4FF4F050ADF80000102011
:1014D0008DF8030003208DF8020069469A4800F059
:1014E000CBFB4FF48051984800F073FC4FF48061BF
:1014F000954800F070FC4FF40061934800F069FCDF
:1015000008BD2DE9F34F8FB004469048109905F0BF
:10151000A9FA099004F07AFF05460E46204604F029
:1015200075FF07462A46334603F028FF884A894B51
:10153000CDE90A0104F008FB0022874BCDE90C013C
:1015400004F08AFC824604F01DFA81467F48109917
:1015500005F088FA02907D48109905F083FA019011
:10156000029905F0F1F883462146204605F0ECF893
:101570005946039004F076FF824604F047FF074681
:1015800004F0AEF9054600224FF0804304F0DCFA87
:101590000022724BCDE9040104F0D6FACDE9060130
:1015A00003F07EFB6A4A6B4BCDE9080104F0CCFAEC
:1015B0000022694BCDE90A0104F04EFCCDE90C0193
:1015C00004F0E0F90E904946654805F04BFA0546EF
:1015D0000E9905F047FA6349086048460E9905F0F0
:1015E00041FA6149086011B0BDE8F08F08B50121EA
:1015F000082000F0FDFD4FF44040ADF80000482009
:101600008DF803006946594800F036FB0121084671
:1016100000F0EEFD08BD10B55548006818B900206F
:10162000544908700EE053480078142805DB002068
:10163000514908705149086004E04E480078401C48
:101640004C4908704C48007830B100204C49086083
:10165000C8204C49088026E0484800684A49096883
:1016600088421DD04648006840B1C82045490880DE
:1016700042480068401C4149086014E04148008825
:1016800088B13E48006828B900213E483C3801F046
:1016900051FF08E039480068401E3849086002E000
:1016A00000203849088010BD10B53148001F00687F
:1016B00018B90020354908700EE034480078142825
:1016C00005DB0020324908703249086004E02F48E9
:1016D0000078401C2D4908702D48007840B100204A
:1016E0002749091D0860C8202649083908802AE0D2
:1016F0002848006828490968884220D02048001DF1
:10170000006848B1C8201F4908390880214800688E
:10171000401C2049086016E01A480838008890B13B
:101720001C48006828B9002116483C3801F0FEFE2C
:1017300009E018480068401E1649086003E00020D0
:1017400010490839088010BD0010014000000A430C
:10175000282D4454FB2109400080664000805D40F4
:10176000000034435001002054010020000C0140CF
:101770003C8121425B0100205A0100204C010020E5
:10178000A40122423C0800405C01002059010020D5
:101790005801002048010020600100202DE9F04F91
:1017A0008BB005460E4614462146204604F0CCFF79
:1017B00007463146304604F0C7FF8046394604F0FC
:1017C00051FE0A900A9804F0B1F809904FF0804158
:1017D0000A9804F0AFFE3C49009004F0ABFE019083
:1017E00004F014FE0746394A394B04F0ADF982463D
:1017F000384A394B04F02EFCCDE9020104F0C2F85E
:10180000049003F08BFB8146484603F0A5FF01904E
:1018100004F0FCFD07468846099804F0F7FD0246EF
:101820000B46CDE900012948294904F08DF982468B
:101830003A46434604F010FBCDE9020104F0A2F859
:10184000049003F0F9FB08903146204603F056FE61
:101850000790089804F0DAFDCDE90201079804F03A
:10186000D5FD07461D4A1E4B04F0F4FBCDE90001EF
:10187000DDE9022304F0E0FC824604F083F80690E0
:101880004946069805F0EEF80590069804F0BEFD6E
:101890008246144A144B04F0DFFA074604F072F84B
:1018A0000690059804F0B2FD82460E4A0E4B04F0F5
:1018B000D3FA074604F066F80590DDE90501C5E9AD
:1018C00000010BB0BDE8F08F00004843C7B94DB828
:1018D000D7376A4074C2F5E9A204F03F282D44547A
:1018E000FB21F93FE6C1631ADCA54C4010B56FF04F
:1018F000040000F034FF2E4800682E49B0FBF1F0E0
:101900002D4908700846007800EB4001C1EBC0107B
:101910004FF6FF7101EAC0002849088010BD01465A
:10192000254A12784A434FF0E0235A6100229A6117
:101930001A46126942F001021A6100BF4FF0E0221C
:10194000106900F001021AB100F48032002AF5D0CB
:101950004FF0E022126922F001024FF0E0231A61F9
:1019600000229A6170470146144A12884A434FF098
:10197000E0235A6100229A611A46126942F001027C
:101980001A6100BF4FF0E022106900F001021AB1A5
:1019900000F48032002AF5D04FF0E022126922F0E4
:1019A00001024FF0E0231A6100229A6170470000A3
:1019B0001400002000127A0064010020660100205B
:1019C000014600BF7047C2B2654B1A80704710B520
:1019D00086B004460121082000F00AFC0121880499
:1019E00000F013FC4FF48060ADF8140003208DF874
:1019F000160018208DF8170005A95A4800F03CF988
:101A00004FF40060ADF8140004208DF8170005A90C
:101A1000544800F031F901940020ADF80800ADF809
:101A20000A00ADF80C00ADF810000C20ADF80E0067
:101A300001A94D4800F083FC012240214A4800F0F2
:101A40003BFD06B010BD10B504460BE000BF4021C1
:101A5000454800F0DBFD0028F9D02178424800F02D
:101A600067FD641C20780028F0D110BD10B586B049
:101A70000446012144F2040000F0BAFB4FF4007068
:101A8000ADF8140003208DF8160018208DF817000B
:101A900005A9364800F0F0F84FF48060ADF8140066
:101AA00004208DF8170005A9304800F0E5F80194EE
:101AB0000020ADF80800ADF80A00ADF80C00ADF854
:101AC00010000C20ADF80E0001A92548001F00F001
:101AD00036FC012240212248001F00F0EDFC06B038
:101AE00010BD10B540F225511D48001F00F0A4FDA7
:101AF00018B31B48001F00F01FFDC4B21C4800882B
:101B000000F40040C8B91A48008800F4804060B171
:101B10000A2C03D000201649088020E014480088D1
:101B200040F400401249088019E00D2C06D11048FD
:101B3000008840F480400E49088010E00C4800887E
:101B4000C0F30D000B490C5409480088401C08499B
:101B5000088008460088C72801DD0020088010BDE5
:101B600004380140000C01400048004000080140DA
:101B70006C010020D0050020094880470948004733
:101B8000FEE7FEE7FEE7FEE7FEE7FEE7FEE7FEE72D
:101B9000FEE7FEE704480549054A064B704700008A
:101BA0007B06000831010008F8060020F80C002030
:101BB000F8080020F808002010B50446CC488442FC
:101BC00008D10121042000F02DFB0021042000F0A9
:101BD00029FB46E0C748844208D10121082000F0D3
:101BE00021FB0021082000F01DFB3AE0C24884429E
:101BF00008D10121102000F015FB0021102000F079
:101C000011FB2EE0BD48844208D10121202000F0C4
:101C100009FB0021202000F005FB22E0B8488442A7
:101C200008D10121402000F0FDFA0021402000F001
:101C3000F9FA16E0B348844208D10121802000F06F
:101C4000F1FA0021802000F0EDFA0AE0AE4884426B
:101C500007D10121801500F0E5FA0021A01500F060
:101C6000E1FA10BD10B50121084600F0DBFA0021B1
:101C7000012000F0D7FA10BD2DE9F0410246002501
:101C80000026002000230024002791F803C00CF058
:101C90000F0591F803C00CF0100CBCF1000F03D03D
:101CA00091F802C04CEA050591F800C0BCF1000FA4
:101CB00031D0146800202BE04FF0010C0CFA00F337
:101CC000B1F800C00CEA03069E4220D183004FF019
:101CD0000F0C0CFA03F7BC4305FA03FC4CEA0404AE
:101CE00091F803C0BCF1280F06D14FF0010C0CFA9B
:101CF00000FCC2F814C00AE091F803C0BCF1480F20
:101D000005D14FF0010C0CFA00FCC2F810C0401CC9
:101D10000828D1D31460B1F800C0BCF1FF0F34DD46
:101D2000546800202EE000F1080C4FF0010808FA7A
:101D30000CF3B1F800C00CEA03069E4221D18300E7
:101D40004FF00F0C0CFA03F7BC4305FA03FC4CEA06
:101D5000040491F803C0BCF1280F05D100F1080C70
:101D600008FA0CF8C2F8148091F803C0BCF1480FCF
:101D700007D100F1080C4FF0010808FA0CF8C2F87E
:101D80001080401C0828CED35460BDE8F0814FF687
:101D9000FF710180022181700421C17070470246E9
:101DA000002093680B400BB1012000E00020704739
:101DB0000146886880B2704702460020D3680B4015
:101DC0000BB1012000E0002070470146C86880B2D6
:101DD000704701617047416170470AB1016100E0DD
:101DE00041617047C16070474FF480320A4382619D
:101DF0008161826182698269704702460020434B9B
:101E000018684FF68073184040EA021008433F4BB1
:101E1000186070473E49C8617047F0B50A46002314
:101E200000240021002500F00046B6F1004F02D149
:101E3000364EF16901E0354E7168C0F3034583B257
:101E400000F44016B6F5401F08D121F070612F4E06
:101E5000766826F070662D4F7E6012E000F48016E2
:101E6000B6F5801F06D1032606FA05F4A14341F01A
:101E7000706106E0460D360103FA06F6B14341F003
:101E8000706122B1460D360103FA06F6314300F0C7
:101E90000046B6F1004F02D11C4EF16101E01B4E2D
:101EA0007160F0BD30B500228B071C0F0F2303FAC1
:101EB00004F2164B08338C1053F824309343134C20
:101EC00008348D1044F8253023468C1053F8243004
:101ED0008C07240F00FA04F423430C4C08348D10B3
:101EE00044F8253030BD0A49DC31086070470000F5
:101EF00000080140000C01400010014000140140A6
:101F000000180140001C0140002001400000014079
:101F100000002042DF48006840F00100DD49086011
:101F200008464068DC490840DA49486008460068CD
:101F3000DA490840D74908600846006820F4802044
:101F400008600846406820F4FE0048604FF41F0017
:101F500088607047CF49096821F48031CD4A11600B
:101F60001146096821F480211160B0F5803F03D04B
:101F7000B0F5802F0ED106E0C649096841F48031E2
:101F8000C44A116007E0C349096841F4A021C14A6D
:101F9000116000E000BF00BF704710B5014600228D
:101FA000002300204A11012A02D1BA4C236806E01E
:101FB000022A02D1B74C236A01E0B64C636A01F0F1
:101FC0001F02012494401C400CB1012000E00020BD
:101FD00010BD38B5002000900024002500BF31203E
:101FE000FFF7DBFF05460098401C00900098B0F515
:101FF000A06F01D0002DF2D03120FFF7CEFF08B145
:10200000012400E00024204638BD01460020A14AFA
:10201000106820F0F80040EAC10010607047A04945
:1020200008607047024600209A4B586820F47C10E4
:1020300042EA01031843974B586070479849086675
:10204000704701460020934A506820F0030008437F
:10205000506070478F48406800F00C0070470146A0
:1020600000208C4A506820F0F00008435060704710
:1020700001460020874A506820F4E0600843506021
:10208000704701460020834A506820F4605040EABF
:10209000C1005060704729B17E4A527A02437D4B9D
:1020A0005A7204E07B4A527A82437A4B5A727047E2
:1020B0007B49D8310860704701460020754A506856
:1020C00020F440400843506070470021714A20329C
:1020D0001170704A82F82010012802D004280AD119
:1020E00004E001216B4A2032117005E00521694AA4
:1020F0002032117000E000BF00BF704769490860DE
:1021000070476449096A0143624A11627047654930
:1021100044390860704730B50021002200240023B4
:102120005C4D6D6805F00C0121B1042905D008292A
:1021300023D105E05C4D056022E05B4D05601FE0AA
:10214000544D6D6805F47012524D6D6805F480347D
:10215000022505EB92421CB9544D554305600BE036
:102160004C4D6D6805F400351DB1504D554305606B
:1021700002E04D4D5543056002E04B4D056000BF48
:1021800000BF444D6D6805F0F0010909484D6B5CD6
:102190000568DD4045603F4D6D6805F4E061090A62
:1021A000434D6B5C4568DD4085603A4D6D6805F4D4
:1021B0006051C90A3E4D6B5C4568DD40C560354DD8
:1021C0006D6805F44041890B3A4D6B5CC568B5FB01
:1021D000F3F5056130BD29B12E4A526902432D4BFA
:1021E0005A6104E02B4A526982432A4B5A61704774
:1021F00029B1284A92690243264B9A6104E0254A94
:1022000092698243234B9A61704729B1214AD2696E
:102210000243204BDA6104E01E4AD26982431D4B1F
:10222000DA61704729B11B4AD2680243194BDA6060
:1022300004E0184AD2688243164BDA60704729B12D
:10224000144A12690243134B1A6104E0114A1269DD
:102250008243104B1A617047124940390860704739
:102260000F49C86470470B49C87170470948406AF4
:1022700040F0807007494862704701460020054AD7
:1022800092680A400AB1012000E00020704701492D
:1022900088727047001002400000FFF8FFFFF6FE52
:1022A000000042428004424200127A0000093D00D0
:1022B0006E0100207E01002010B50446FB488442D8
:1022C00009D101218803FFF7ADFF00214FF48040C1
:1022D000FFF7A8FF32E0F648844209D10121480403
:1022E000FFF7ADFF00214FF40030FFF7A8FF25E016
:1022F000F048844209D101218804FFF7A0FF0021A2
:102300004FF48020FFF79BFF18E0EB48844209D18F
:102310000121C804FFF793FF00214FF40020FFF7CD
:102320008EFF0BE0E548844208D101210805FFF744
:1023300086FF00214FF48010FFF781FF10BD2DE9CB
:10234000F04786B005460E460024A24600BFA146CF
:102350000027B08900B100BF2F462C8A4CF6FF70D1
:102360000440F08804432C82AC894EF6F3100440FC
:10237000B08831890843718908430443AC81AC8A31
:102380004FF6FF400440B0890443AC8201A8FFF738
:10239000C2FEC648874202D1DDF810A001E0DDF898
:1023A0000CA0A88900F4004040B10AEBCA0000EB81
:1023B0000A1031684900B0FBF1F807E00AEBCA00E7
:1023C00000EB0A1031688900B0FBF1F86420B8FB1B
:1023D000F0F004012009642101FB1089A88900F4B0
:1023E000004040B1322000EBC900B0FBF1F000F03A
:1023F0000700044308E0322000EB09106421B0FB21
:10240000F1F000F00F0004432C8106B0BDE8F08726
:102410004FF41651016000218180C18001810C219F
:10242000418100218181704710B502460020108A49
:102430004FF2FF0318400B884C8823438C882343BA
:10244000CC8823431843108210BD002101804180B5
:102450008180C180704721B1828942F4005282811B
:1024600004E082894DF6FF731A4082817047F0B50F
:102470000346002400260025002040F66A17B942D2
:1024800000D100BF1846C1F3421401F01F06012716
:1024900007FA06F5012C01D10C3004E0022C01D121
:1024A000103000E014301AB107682F43076002E0D3
:1024B0000768AF430760F0BD1AB1838A0B4383827C
:1024C00002E0838A8B4383827047028A4FF6F0735F
:1024D0001A400282028A0A430282704782894FF2BE
:1024E000FF731A40828182890A438281704721B139
:1024F000828942F00202828104E082894FF6FD73F4
:102500001A4082817047028A4FF6DF731A400282B6
:10251000028A0A430282704721B1028A42F4804251
:10252000028204E0028A4BF6FF731A40028270476F
:10253000C1F308028280704701468888C0F3080012
:102540007047818941F0010181817047028BD2B2CD
:102550000283028B42EA012202837047028B02F45B
:102560007F420283028B0A430283704721B1828A31
:1025700042F02002828204E0828A4FF6DF731A4022
:102580008282704721B1828A42F01002828204E086
:10259000828A4FF6EF731A408282704721B1828A95
:1025A00042F00802828204E0828A4FF6F7731A40F2
:1025B0008282704721B1828942F40042828103E025
:1025C0008289C2F30E028281704721B1828A42F46D
:1025D0000062828204E0828A4FF2FF731A40828294
:1025E0007047828A4FF6FB731A408282828A0A43BE
:1025F0008282704721B1828A42F00202828204E024
:10260000828A4FF6FD731A4082827047024600208C
:10261000B1F5007F00D100BF13880B400BB1012042
:1026200000E00020704701F40072B2F5007F00D195
:1026300000BFCA430280704770B5024600240023E1
:102640000025002040F66A16B14200D100BFC1F358
:10265000421501F01F03012606FA03F3012D02D1F2
:102660009689334006E0022D02D1168A334001E0FC
:10267000968A33400C12012606FA04F41688344078
:1026800013B10CB1012000E0002070BD10B5002294
:10269000002340F66A14A14200D100BF0A120124AF
:1026A0009440A3B2DC43048010BD00000038014018
:1026B0000044004000480040004C004000500040F2
:1026C00031490143314A1160704770B50021002340
:1026D0000F22C47804B32D4C246804F4E064C4F5DC
:1026E000E064210AC1F10403CA40447804FA03F10A
:1026F0008478144021430901254C0678A1550478BB
:1027000004F01F050124AC4005786D11AD0005F102
:10271000E025C5F8004109E0047804F01F05012414
:10272000AC401C4D0678761145F8264070BD1A4A1B
:102730000A400243154B1B1F1A60704739B1134AF8
:10274000121D12680243114B1B1D1A6006E00F4A4E
:10275000121D126882430D4B1B1D1A60704704281E
:1027600008D14FF0E021096941F004014FF0E02267
:10277000116107E04FF0E021096921F004014FF0F9
:10278000E0221161704700000000FA050CED00E046
:1027900000E400E080E100E080FFFF1F10B5044688
:1027A000FE48844208D10121C014FFF73BFD0021FF
:1027B000E014FFF737FDC4E0B4F1804F08D10121E8
:1027C0000846FFF73CFD00210120FFF738FDB8E087
:1027D000F348844208D101210220FFF730FD002197
:1027E0000220FFF72CFDACE0EE48844208D1012125
:1027F0000420FFF724FD00210420FFF720FDA0E0C6
:10280000E948844208D101210820FFF718FD002182
:102810000820FFF714FD94E0E448844208D1012128
:102820001020FFF70CFD00211020FFF708FD88E0C5
:10283000DF48844208D101212020FFF700FD00215C
:102840002020FFF7FCFC7CE0DA48844208D101211B
:102850004014FFF7E7FC00216014FFF7E3FC70E091
:10286000D548844209D10121C804FFF7DBFC0021CF
:102870004FF40020FFF7D6FC63E0D048844209D132
:1028800001210805FFF7CEFC00214FF48010FFF76F
:10289000C9FC56E0CA48844209D101214805FFF726
:1028A000C1FC00214FF40010FFF7BCFC49E0C54813
:1028B000844208D101214020FFF7C1FC00214020C3
:1028C000FFF7BDFC3DE0C048844208D101218020D3
:1028D000FFF7B5FC00218020FFF7B1FC31E0BB48D9
:1028E000844208D101218015FFF7A9FC0021A01521
:1028F000FFF7A5FC25E0B648844209D10121080470
:10290000FFF790FC00214FF48030FFF78BFC18E0BC
:10291000B048844209D101214804FFF783FC00211B
:102920004FF40030FFF77EFC0BE0AB48844208D147
:1029300001218804FFF776FC00214FF48020FFF787
:1029400071FC10BD00220288944B98420ED0994B26
:1029500098420BD0B0F1804F08D0914B984205D0EF
:10296000904B984202D0904B984204D14FF68F730F
:102970001A404B881A438D4B984207D08C4B984293
:1029800004D04FF6FF431A40CB881A4302808B884D
:1029900083850B880385814B98420BD0854B9842E9
:1029A00008D08B4B984205D08A4B984202D08A4B74
:1029B000984201D10B7A038601238382704770B558
:1029C000002400220023058C4FF6FE763540058456
:1029D000028C8388048B4FF68F752C40B51E2C40DB
:1029E0000D882C43751E2A400D892A434D882A43A1
:1029F0006A4DA8420BD06F4DA84208D0744DA84232
:102A000005D0744DA84202D0734DA84213D14FF6A1
:102A1000F7752A404D892A434FF6FB752A408D8869
:102A20002A434FF6FF652B404FF6FF552B408D890B
:102A30002B43CD892B4383800483CD8885860284F4
:102A400070BD70B5002400220023058C4FF6EF7690
:102A500035400584028C8388048B48F6FF752C4032
:102A60004FF6FF452C400D884FF6FF7606EA052508
:102A70002C434FF6DF752A400D8906EA05152A43D7
:102A80004D8806EA05152A43444DA84202D0494D17
:102A9000A8421DD14FF67F752A404D894FF6FF762B
:102AA00006EA05152A434FF6BF752A408D8806EAC7
:102AB00005152A434FF6FF352B404FF2FF752B408B
:102AC0008D8906EA85052B43CD8906EA85052B43CA
:102AD00083800483CD880587028470BD70B500248F
:102AE00000220023058C4FF6FF6635400584028CDA
:102AF0008388848B4FF68F752C404FF6FC752C40E5
:102B00000D882C434FF6FF552A400D894FF6FF766E
:102B100006EA05252A434D8806EA05252A431F4D66
:102B2000A84202D0234DA8421DD14FF2FF752A4082
:102B30004D894FF6FF7606EA05252A434FF6FF3505
:102B40002A408D8806EA05252A434EF6FF752B405C
:102B50004DF6FF752B408D8906EA05152B43CD896F
:102B600006EA05152B4383808483CD8885870284FC
:102B700070BD70B5002200230024058C4EF6FF7650
:102B800035400584038C8488828B48F6FF752A4083
:102B90004FF6FF452A400D8820E00000002C014040
:102BA0000004004000080040000C004000100040FD
:102BB0000014004000340140004C0140005001402E
:102BC0000054014000180040001C0040002000405C
:102BD0000040014000440140004801404FF6FF76AC
:102BE00006EA05252A434DF6FF752B400D8906EAB6
:102BF00005352B434D8806EA05352B43FA4DA8428F
:102C000002D0FA4DA84208D14BF6FF752C408D89B1
:102C10004FF6FF7606EA85152C4384808283CD88A3
:102C2000A0F84050038470BD828B4FF2FF331A40EE
:102C30008283828B4FF6FF7303EA01231A43828358
:102C40007047F0B50C461546002200210026078C7F
:102C50004EF6FF7C07EA0C070784828B018C4FF647
:102C6000FF7707EA043640F6FF473A404FF6FF7712
:102C700007EA05273A434FF6FF7707EA03373A4357
:102C8000D94FB8420ED0D94FB8420BD0B0F1804FD7
:102C900008D0D74FB84205D0D64FB84202D0D64F51
:102CA000B84206D14DF6FF77394046F48057394394
:102CB00005E047F6FF57394044F480573943828393
:102CC0000184F0BD828B4FF6F3731A408283828BAE
:102CD0000A4382837047F0B50C4615460022002156
:102CE0000026078C4FF6FF6C07EA0C070784828BDF
:102CF000018C4FF6FF7707EA04264FF60C773A402F
:102D00004FF6FF7707EA03172F433A43B64FB8420F
:102D10000ED0B64FB8420BD0B0F1804F08D0B44FB0
:102D2000B84205D0B34FB84202D0B34FB84206D133
:102D30004FF6FF57394046F48077394305E04FF2AC
:102D4000FF57394044F48077394382830184F0BDD2
:102D5000028B4FF2FF331A400283028B4FF6FF7350
:102D600003EA01231A4302837047F0B50C46154667
:102D7000002200210026078C4FF6EF7C07EA0C07A3
:102D80000784028B018C4FF6FF7707EA041640F6A2
:102D9000FF473A404FF6FF7707EA03373A434FF6CB
:102DA000FF7707EA05273A438F4FB8420ED08F4F7F
:102DB000B8420BD0B0F1804F08D08D4FB84205D04B
:102DC0008C4FB84202D08C4FB84206D14FF6DF7715
:102DD000394046F01007394305E04FF65F77394038
:102DE00044F01007394302830184F0BD028B4FF693
:102DF000F3731A400283028B0A4302837047F0B5D3
:102E00000C46154600220021068C4FF6FE773E4008
:102E10000684028B018C4FF60C7632407E1C06EA4B
:102E200003162E433243704EB0420ED06F4EB04266
:102E30000BD0B0F1804F08D06D4EB04205D06D4E32
:102E4000B04202D06C4EB04206D14FF6FD76314012
:102E500044F00106314305E04FF6F576314044F089
:102E60000106314302830184F0BD70B505460C466E
:102E70005D4885420ED05D4885420BD0B5F1804F4C
:102E800008D05B48854205D05A48854202D05A484E
:102E9000854200D100E000BF208850B92389A28874
:102EA00061882846FFF7ABFFE1882846FFF79EFFC1
:102EB00025E0208804280AD12389A2886188284631
:102EC000FFF753FFE1882846FFF742FF17E020880D
:102ED00008280AD12389A28861882846FFF7FBFECB
:102EE000E1882846FFF7EEFE09E02389A288618881
:102EF0002846FFF7A6FEE1882846FFF795FE70BD3D
:102F00002DE9F04105460C4600260127608808B9E6
:102F1000022600E00026A088012801D1022700E057
:102F200001272088A0B92389A28861882846FFF755
:102F300066FFE1882846FFF759FF23893A46314664
:102F40002846FFF712FFE1882846FFF701FF13E04C
:102F50002389A28861882846FFF707FFE188284671
:102F6000FFF7F6FE23893A4631462846FFF747FF2A
:102F7000E1882846FFF73AFFBDE8F0810A884B88D0
:102F80001A438B881A43CB881A430B891A434B89FF
:102F90001A438B891A43A0F8442070474FF6FF71FB
:102FA000818000210180C180418001727047002131
:102FB000018041808180C180018141818181C18105
:102FC0007047002101804180012181800021C18062
:102FD000018170470021018041808180C180018191
:102FE0004181818170470000002C01400034014084
:102FF0000004004000080040000C004021B102889D
:1030000042F00102028004E002884FF6FE731A408B
:103010000280704731B1B0F8442042F40042A0F879
:10302000442005E0B0F84420C2F30E02A0F844208A
:1030300070471AB183890B43838102E083898B43F4
:10304000838170478182704741EA0203A0F84830CB
:1030500070471AB183890B43838102E083898B43D4
:103060008381704701894FF6F872114001817047E2
:103070000A46002101894FF68F73194011430181DF
:10308000704730B504460D4629462046FFF7F0FF4D
:10309000208940F00700208130BD2DE9F041044631
:1030A0000D4616461F46602D06D13B46012231468D
:1030B0002046FFF75AFE05E03B46012231462046F6
:1030C000FFF79DFE29462046FFF7D2FF208940F0FA
:1030D00007002081BDE8F08130B50C460021018950
:1030E000C9B24FF6FF7505EA032515432543294369
:1030F000018130BD2DE9F04105460E461746984640
:10310000002443463A4631462846FFF7E5FF2C891E
:103110004FF6F870044044F007044FF68F700440F7
:1031200044F070042C81BDE8F081F0B504460D46F2
:1031300016461F463B46324629462046FFF7CCFF3F
:10314000208940F480402081F0BD01858282704753
:103150000A46002101884FF68F7319401143018000
:103160007047F0B50C4615461E460021002200238C
:103170000189028B038C4FF6F877394021434FF6D3
:10318000FC473A4040F201173A434FF6DD773B40A7
:103190004FF6FF7707EA06172F433B43018102836F
:1031A0000384F0BD0A460021018B4FF68F7319404E
:1031B0001143018370470A460021018B48F6FF73D3
:1031C00019404FF6FF7303EA022319430183704746
:1031D0000A460021818B4FF68F731940114381837A
:1031E00070470A460021818B48F6FF7319404FF65D
:1031F000FF7303EA022319438183704721B10288D8
:1032000042F08002028004E002884FF67F731A4089
:103210000280704721B1828842F00402828004E07B
:1032200082884FF6FB731A408280704721B18288F2
:1032300042F00802828004E082884FF6F7731A4059
:103240008280704721B1828842F00102828004E0CE
:1032500082884FF6FE731A40828070470A4600212A
:10326000018B4FF6F77319401143018370470A46EB
:103270000021018B4FF2FF7319404FF6FF7303EAF1
:1032800002231943018370470A460021818B4FF6C0
:10329000F77319401143818370470A460021818BDF
:1032A0004FF2FF7319404FF6FF7303EA02231943ED
:1032B000818370470A460021018B4FF6FB7319404A
:1032C0001143018370470A460021018B4FF6FF33FB
:1032D00019404FF6FF7303EA022319430183704735
:1032E0000A460021818B4FF6FB73194011438183FD
:1032F00070470A460021818B4FF6FF3319404FF685
:10330000FF7303EA02231943818370470A460021B1
:10331000018B4FF67F7319401143018370470A46B2
:103320000021018BC1F30E014FF6FF7303EA022364
:103330001943018370470A460021818B4FF67F7342
:1033400019401143818370470A460021818BC1F3E4
:103350000E014FF6FF7303EA02231943818370477E
:103360000A460021018C4FF6FD7319401143018478
:1033700070470A460021018C4FF6F773194011433C
:10338000018470470A460021018C4FF6DF73194013
:103390004FF6FF7303EA02131943018470470A468C
:1033A0000021018C4FF67F7319404FF6FF7303EA3B
:1033B00002131943018470470A460021018C4FF61D
:1033C000FF5319404FF6FF7303EA022319430184A8
:1033D00070470A460021018C4FF2FF7319404FF6E7
:1033E000FF7303EA02231943018470470A46002150
:1033F000018C4DF6FF7319404FF6FF7303EA023359
:1034000019430184704730B5002301248C40A3B2D6
:10341000048C9C430484048C02FA01F5ADB22C4365
:10342000048430BD30B5002304248C40A3B2048C46
:103430009C430484048C02FA01F5ADB22C4304844D
:1034400030BD70B503460020002418461830012511
:103450008D40ACB21D8CA5431D8409B1082909D14A
:1034600000EB6100056825F07005056005681543EF
:1034700005600EE00D1FC5F34E052844056825F4D0
:10348000E045056005684FF6FF7606EA02263543FB
:10349000056070BD21B1028842F00202028004E0A2
:1034A00002884FF6FD731A400280704721B10288EE
:1034B00042F00402028004E002884FF6FB731A40D7
:1034C0000280704721B1828842F08002828004E04D
:1034D00082884FF67F731A408280704702884FF6C9
:1034E000F7731A40028002880A430280704782887C
:1034F0004FF68F731A40828082880A438280704719
:1035000002894FF6F8731A40028102890A43028148
:10351000704702894FF67F731A40028102890A437D
:10352000028170478184704781857047818670472A
:103530000187704781877047A0F840107047028864
:103540004FF6FF431A40028002880A430280704708
:103550000146888E70470146088F70470146888F64
:1035600070470146B1F8400070470146888C7047AB
:103570000146088D704702460020138A0B400BB1AC
:10358000012000E000207047CA430282704730B536
:103590000246002000230024158A05EA01039589CC
:1035A00005EA010413B10CB1012000E0002030BD98
:1035B000CA4302827047000001684FF6FE72114054
:1035C00001600021016041608160C1608D498842D5
:1035D00008D18C490839496841F00F01894A083AF5
:1035E00051608AE087491431884208D185490839F9
:1035F000496841F0F001834A083A51607DE0814911
:103600002831884208D17F490839496841F47061FE
:103610007C4A083A516070E07A493C31884208D1CE
:1036200078490839496841F47041764A083A51604E
:1036300063E074495031884208D1724908394968B9
:1036400041F470216F4A083A516056E06D49643187
:10365000884208D16B490839496841F47001694AC8
:10366000083A516049E067497831884208D1654994
:103670000839496841F07061624A083A51603CE09B
:103680006149884206D1011F096841F00F01021FFC
:10369000116032E05C491431884208D15A49091F4F
:1036A000096841F0F001584A121F116025E056499F
:1036B0002831884208D15449091F096841F47061D2
:1036C000514A121F116018E04F493C31884208D11D
:1036D0004D49091F096841F470414B4A121F11609E
:1036E0000BE049495031884207D14749091F096811
:1036F00041F47021444A121F1160704710B5002236
:10370000026847F6F0739A430C6A8B6823430C698E
:1037100023434C6923438C692343CC6923434C6A7C
:1037200023438C6A23431A430260CB6843600B68CF
:1037300083604B68C36010BD0021016041608160FF
:10374000C160016141618161C16101624162816267
:10375000704721B1026842F00102026004E0026891
:103760004FF6FE731A40026070471AB103680B43AC
:10377000036002E003688B43036070474160704759
:103780000146486880B2704701460020002201F0DF
:1037900080531BB11C4B083B1A6802E0194B083BD5
:1037A0001A6802EA01030BB1012000E00020704713
:1037B00000F0805119B11449091F086002E0114955
:1037C00008394860704701460020002201F080530C
:1037D0001BB10D4B083B1A6802E00A4B083B1A6804
:1037E00002EA01030BB1012000E00020704700F065
:1037F000805119B10449091F086002E001490839E4
:10380000486070470800024008040240704700000A
:103810000FB41CB5074B06AA7B4469460090059877
:1038200000F091FB0020694600F0A0FB1CBC5DF895
:1038300014FB00005107000070B50446856900685C
:10384000C10601D5302600E02026C00707D070BD94
:10385000D4E9012130469047206A401C20626D1E49
:10386000F6D570BD70B5044685690078C00707D1EC
:1038700070BDD4E9012120209047206A401C2062BD
:103880006D1EF6D570BD00002DE9F04106460024FE
:1038900010687529314616A510D0AFF300800028B6
:1038A00002DA404213A507E031688A0701D512A564
:1038B00002E0490704D511A5012401E0AFF300801F
:1038C00000210A2206F1240709E0B0FBF2FCB0FB5C
:1038D000F2F302FB1C00303078541846491C0028D3
:1038E000F3D123462A463046BDE8F04100F0BDB88A
:1038F000000000002D0000002B0000002000000050
:103900002DE9F0474FF0000A89460446C0F820A090
:103910002046E1688847002876D0252806D0D4E9DB
:1039200001219047206A401C2062F1E7E1682046AF
:1039300000258847C4F81CA006460027C4F818A034
:103940002A2E09D0304601F0A3F938B304EB8708DA
:10395000303EC8F8186019E059F8041B204604EB03
:1039600087029161E1688847012F064618D1E06916
:10397000002820DA25F020051DE0D8F8180000EB1B
:10398000800006EB40003038C8F818002046E16897
:103990008847064601F07CF90028EED1012F0AD0B5
:1039A0002E2E08D12046E16888477F1C0646022F4C
:1039B00045F02005C4DBA069002803DA404245F049
:1039C0000105A061E80701D025F01005B6B1A6F108
:1039D0004100192802D8203645F400654A46314690
:1039E000204625604D46FCF7FDFB58B1012806D066
:1039F000ED1D25F0070000F1080989E704E005F155
:103A0000040985E730468AE7206ABDE8F08710B5EB
:103A1000431C02E010F8011B71B18107FAD14FF08D
:103A2000013202C88C1A8C4314EAC211F9D0C01AB0
:103A30000A0603D0C01E10BDC01A10BD0A0401D072
:103A4000801E10BD0902FCD0401E10BD704770479B
:103A50007047704710B500F093FA006810BD10B5BC
:103A6000044600F08DFA046010BD2DE9F0470D46C4
:103A700099469246044600F124080168880604D558
:103A8000E06921F01001216000E00120A84201DD81
:103A9000471B00E00027A1697A1902EB0900081A08
:103AA000A0612078C00602D42046FFF7C5FE00269C
:103AB00008E0D4E901211AF806009047206A401C6A
:103AC000761C20624E45F4DB2078C0060AD52046DD
:103AD000FFF7B2FE06E0D4E9012130209047206ACA
:103AE000401C2062381EA7F10107F4DC07E0D4E98E
:103AF000012118F805009047206A401C2062281E0A
:103B0000A5F10105F3DC2046FFF7ACFE20780006A6
:103B100002D50220BDE8F0870120FBE770472DE9C0
:103B2000FF4F0C461E464FF0FF378BB0D2E9000125
:103B3000DDF860800A908A46C1F30A5505B93D4612
:103B4000002108464FF00000BAF1000F00F44000D9
:103B500005DA00EB80004FF4400101EA50004FEA23
:103B60009059B9F1010F00DDB9460A9850EA4A00B0
:103B70000ED044F61050A5F2FF3545432F14B8F18E
:103B8000000F1ED07542291E1EDDC9F100021CE087
:103B9000B8F1010F4FF0000001D0302103E0F243F3
:103BA00005E02154401CB042FBDB304600220021DE
:103BB00021540B99C1F80880C1E900200FB0BDE87D
:103BC000F08FBD1B6D1CDEE74A4600DA694206A88D
:103BD00000F060FA06AB93E8070003AB83E8070048
:103BE00050460A9900F03AFB8DE80700A0F5005016
:103BF0001F3800900398002D0ADD42F21F014A464B
:103C00000844002303A90390684600F0A3FD09E0DF
:103C1000A0F500504A461F38002303A903906846C8
:103C200000F0ADFD8DE807000004000C03D04FF05C
:103C3000FF30410800E01046B8F1000F03D0002229
:103C4000009215461EE0751E05D400F09DF9303235
:103C500062556D1EF9D5B3460122084302D00022F9
:103C60007F1C04E02078302801D100227F1E002A2A
:103C7000099784D01DE0112D07DA00F085F9303264
:103C800062556D1C50EA0102F5D1084302D000983C
:103C9000C8B10EE00021681E05E0235C625C63543D
:103CA0002254401E491C8142F7DBAB46A81B401E34
:103CB0000990002004F80B000B98099AC0F80880BE
:103CC000C0E9002B7AE711264FF0000857E72DE9ED
:103CD000F04F88460446D21D22F0070191B0D1E989
:103CE0000001CDE90A0100F081FE02460B98C00FE9
:103CF00001D02D2007E02068810701D52B2002E0AC
:103D0000202101EAC000032A099001D0072A05DB1F
:103D100003464146204600F07DF90BE120788006FD
:103D200001D5E06900E00620B8F1650F814606D0B4
:103D3000B8F1660F18D0B8F1670F70D131E00020EC
:103D4000B9F1110F009001DB112301E009F101032A
:103D50000AAA01A90CA8FFF7E2FEDDE90C70002613
:103D600009F10105834647E001204B4600904FF0E2
:103D700000470AAA01A90CA8FFF7D1FEDDE90DB0A2
:103D80000C995D46002610B909F101000D18B9EB38
:103D9000050003D4C0F1FF3609F10105A5EB0900C8
:103DA0002BE0B9F1010F01DA4FF001090020B9F160
:103DB000110F0090484601DD112300E003460AAAD6
:103DC00001A90CA8FFF7ABFEDDE90C704D460026FB
:103DD0008346207800070AD4AB4500DA5D4601A887
:103DE000012D04DD411911F8011C302907D04F4580
:103DF00002DA17F1040F04DA012082460FE06D1E8B
:103E0000EEE7002F02DCED1B3E4403E0781CA842E5
:103E100000DD7D1CB81B00F1010A4FF0004720783F
:103E2000000703D4AA4501DB4FF0FF3A0021B7F1A8
:103E3000004F0DF143088DF8431024D002202B23AE
:103E4000002F01DA7F422D230A21021EA0F101007A
:103E500000DC5FB197FBF1FC97FBF1F201FB1C7CEE
:103E600017460CF1300C08F801CDEEE7A8F101007F
:103E700003702188090501D5452100E06521A0F1E5
:103E8000010800F8011C09980FA9A1EB0807FF1D04
:103E900000B10120411901EBEA70A1693844081A08
:103EA000401EA0612078C00602D42046FFF7C4FC63
:103EB000099828B1D4E901219047206A401C20626A
:103EC0002078C00622D52046FFF7B6FC1EE0002E63
:103ED00004DBB34502DD01A8805D00E03020D4E9B9
:103EE00001219047206A401C2062761CAAF1010043
:103EF0005FEA000A0AD100F03FF8C0680168405C40
:103F0000D4E901219047206A401C2062281EA5F1B7
:103F10000105DCDC07E0D4E9012118F8010B90472A
:103F2000206A401C2062381EA7F10107F3DC2046FE
:103F3000FFF798FC032011B041E6000001694A1C1C
:103F400002610878704700B58FB0CDE901310021DA
:103F5000059105497944CDE9031011466846FFF7FC
:103F6000CFFC0FB000BD0000E5FFFFFF0A6802F8BC
:103F7000010B0A607047000000487047B806002037
:103F8000004870479806002030B5B0F10A024FEAA9
:103F9000900E71F100034EEA817EB0EB0E0061EBF2
:103FA00091014FEA101E4EEA017E10EB0E0041EB2C
:103FB00011114FEA102E4EEA016E10EB0E0041EB8C
:103FC00011214FEA104E4EEA014E10EB0E0041EB6C
:103FD0001141401841F100014FEAD00040EA417020
:103FE0004FEAD10110EB80054FEA810444EA907456
:103FF00044EB01046D1944EB0404521BA3414FF040
:10400000000348BF0A3200D530BD401C41F1000119
:1040100030BD00002DE9F0411F460446032601682B
:10402000072A01F4006004DB08B116A505E016A517
:1040300003E008B115A500E015A521F010002060EF
:10404000A069C01EA0610FB1401EA0612046FFF70D
:10405000F3FB4FB1D4E9012138469047206A401C58
:104060002062C01C206206E0206AFAE7D4E9012140
:1040700015F8010B9047761EF8D22046FFF7F2FBA9
:10408000BDE8F0814E414E006E616E00494E460023
:10409000696E66002DE9F047814616468AB03548BC
:1040A00078440DC88DE80D0032487844801C03AC7C
:1040B0000DC884E80D0041F69B300844372190FB81
:1040C000F1F290FBF1F5A5F1800501FB12041B3C18
:1040D00002D56442012000E00020DFF898A080466D
:1040E0000027FA44AAF1BE0A0EE0E0070AD03246E1
:1040F000684607EB470101230AEB810100F03FFB13
:104100008DE8070064107F1C002CEED1194F7F440E
:10411000AE3F19E0E80715D007EB04100DF1180ABF
:1041200090E80E008AE80E00C068F04201D19819AC
:1041300008903246012306A903A800F020FB03AB38
:1041400083E807006D10641C002DE3D14FF00103DC
:1041500032466946B8F1000F03A802D000F0FAFA1F
:1041600001E000F00CFBC9E90001C9F808200AB021
:10417000BDE8F087903500000048704798060020A1
:104180007546FFF7F9FFAE4605006946534620F035
:104190000700854618B020B5FDF7FCFCBDE82040BF
:1041A0004FF000064FF000074FF000084FF0000BF3
:1041B00021F00701AC46ACE8C009ACE8C009ACE8A6
:1041C000C009ACE8C0098D46704710B50446AFF38E
:1041D00000802046BDE81040FCF721B84FF0013CBC
:1041E00050F8042B51F8043B9A4221D1A2EB0C0366
:1041F000934313EACC1317D150F8042B51F8043B26
:104200009A4215D1A2EB0C03934313EACC130BD1C2
:1042100050F8042B51F8043B9A4209D1A2EB0C034D
:10422000934313EACC13DBD04FF00000704700BF7C
:10423000D01A01BAB1FA81F101F0180122FA01F0A5
:10424000CB40C1F12001DBB2C0B2C01A2CFA01F39D
:10425000D11A914311EAC311E6D170475FEA400CCD
:1042600008BF91F0000F4FEA8C234FEAC12243EAC6
:1042700051514FEA1C5018BF00F5F0404FEA300092
:1042800018BF41F000415FEA6C5C00F02980BCF18E
:10429000FF3F08BF40F080407047130C06BF120478
:1042A0004FF0100C4FF0000C130E04BF12020CF173
:1042B000080C130F04BF12010CF1040C930F04BF80
:1042C00092000CF1020CD30F04BF52000CF1010C50
:1042D00011464FF00002A0F11F00A0EB0C00704748
:1042E00011F0004F08BF704731F000413FF4D5AFE7
:1042F0000B0C06BF09044FF0100C4FF0000C0B0E16
:1043000004BF09020CF1080C0B0F04BF09010CF1EA
:10431000040C8B0F04BF89000CF1020CCB0F04BFFF
:1043200049000CF1010CCCF12003A0EB0C0022FAA7
:1043300003F302FA0CF241EA030100F101007047B5
:1043400020F07F4C80EA030023F07F47ACEB0703AB
:1043500003F57C5300F0004003F1FF032DE9804991
:104360004FEA154B09B44FEA144325EA0B4E24EAF1
:1043700003480FF2042606EB132749083E785FEA4C
:10438000320203FB0667C7F5000707FB06F64FEA94
:1043900054374FEAD64606F1020607FB066CCCF10D
:1043A000005C4FEA1C472CEA074C07FB06F40CFBA9
:1043B00006F504EB15464FEA961634BF00204FF081
:1043C00000404FEAD13706FB07FC4FEA1C4C0CFBC0
:1043D0000BF7D21B03FB0CF761EB07010CFB0EF78D
:1043E000B0EB074072EB17420CFB08F734BFA2EBAF
:1043F0000742B2EB074261EB17414FEA0C444FEA28
:10440000910706FB07FC4FEA1C4C0CFB0BF7B0EBCB
:10441000C74072EB573203FB0CF734BFA2EBC74225
:10442000B2EBC74261EB57310CFB0EF7B0EBC700A4
:1044300072EB57720CFB08F734BFA2EBC702B2EB6A
:10444000C70261EB5771039F4FEA816141EA921104
:1044500004EBCC044FEAD1374FEA826206FB07FC3B
:1044600042EA90124FEA80604FEA1C4C0CFB0BF7BB
:10447000D21B03FB0CF761EB07010CFB0EF7B0EB53
:10448000074072EB17420CFB08F734BFA2EB074260
:10449000B2EB074261EB17414FEA8C554FEA9107A7
:1044A00004EB9C2406FB07FC4FEA1C4C0CFB0BF7AF
:1044B000B0EBC74072EB573203FB0CF734BFA2EBF3
:1044C000C742B2EBC74261EB57310CFB0EF7B0EBC2
:1044D000C70072EB57720CFB08F734BFA2EBC702A0
:1044E000B2EBC70261EB577115EB4C254FEA8161C6
:1044F00041EA92114FEA82624FEAD13742EA9012C2
:1045000006FB07FC44F100044FEA80604FEA1C4CB4
:104510000CFB0BF7D21B03FB0CF761EB07010CFB49
:104520000EF7B0EB074072EB17420CFB08F734BFF5
:10453000A2EB0742B2EB074261EB174115EB1C15EA
:104540004FEA813141EA92414FEA823242EA904297
:104550004FEA80304FEA0C7644F1000448EA034306
:104560004EEA0B484FF0000EB2EB080C71EB03075C
:1045700024BF624639464EEB0E0E4FF0000B00187A
:10458000524149414BEB0B0BB2EB080C71EB0307AB
:104590007BF1000B24BF624639464EEB0E0E4FF006
:1045A000000B0018524149414BEB0B0BB2EB080CCE
:1045B00071EB03077BF1000B24BF624639464EEBDB
:1045C0000E0E51EA020718BF46F0010616EB0E76F2
:1045D00055F1000254F1000103D5BDE88901BDE8A1
:1045E0000088BDE88901BDE80048B619524141EB99
:1045F0000101A3F10103704780807F7E7D7C7B7A7F
:104600007978777676757473727171706F6E6E6D7E
:104610006C6C6B6A6A696868676666656464636324
:1046200062616160605F5F5E5E5D5D5C5C5B5B5AAA
:104630005A59595858575756565555555454535317
:1046400052525251515050504F4F4F4E4E4D4D4D72
:104650004C4C4C4B4B4B4A4A4A49494948484847BD
:1046600047474746464645454544444444434343FB
:104670004342424242414141002B9C4630D47700A4
:104680002BD01CB54FEA370703B44FF010004FF0A2
:104690001001BAF1000F06D0BCF1000FDCBF40F0F2
:1046A000080040F008014FF000000FBCBDE81040CA
:1046B0000BF1010BBBF1010F08BF5FEA170722BF27
:1046C00012F1010211F101014FF0004143F1000329
:1046D00000F0004043EA00007047F9D35708D0E7E4
:1046E00046EA064613F1400F4FEA16461FDD13F166
:1046F000200FDFBF16430A46002120335B42BED0A5
:10470000C3F1200746EA064602FA07F74FEA1646C3
:1047100046EA0706C3F1200722FA03F201FA07F777
:1047200021FA03F14FF0000342EA0702A7E746EA45
:10473000020646EA06464FEA164646EA0106BCBFAE
:1047400046EA0646360C4FF000034FF000024FF0E9
:10475000000194E72DE9804C9A46934670B491E8A5
:10476000380007C831EA400C48BF34EA430C03D58F
:10477000FFF7E6FDFFF780FFF0BCBDE8008C2DE9F8
:10478000804C9A46934670B491E8380007C810F000
:10479000804F08BF13F0804F03D100F005F8FFF7FA
:1047A0006BFFF0BCBDE8008C20F07F4780EA03007F
:1047B00023F07F4C07EB0C03A3F57C5300F0004083
:1047C000A3F1FE0392F0000F00F0B38095F0000F0C
:1047D00000F077802DE901494FEA11404FEA144675
:1047E00021EA004800FB06FC24EA064708FB06F61F
:1047F00007FB08F800FB07F718EB06484CEB164CD4
:104800004FEA124B18EB07484FEA15464CEB17409E
:1048100022EA0B4E0BFB06FC25EA06470EFB06F6CA
:1048200007FB0EFE0BFB07F71EEB064E4CEB164C80
:104830004FF000061EEB074E4CEB174B18EB0B0826
:1048400040F1000018EB0E0B58EB000840F100009F
:104850008F1A4FF000013CBFC943661B14BFB5EB74
:10486000040C00213CBFC943F61B4FEA17444EEA33
:104870008E0E27EA04454FEA1C4704FB07622CEA28
:10488000074C05FB07F70CFB05F604FB0CFC16EBCD
:10489000074642EB174216EB0C4642EB1C421BEB61
:1048A000060658EB0202414146EA9E0601D5BDE8E4
:1048B0000189B619524141EB0101A3F10103BDE8A1
:1048C00001894FEA14454FEA114724EA054621EAD7
:1048D000074C05FB07F406FB07F70CFB06F105FB8D
:1048E0000CFC11EB074144EB17444FEA124711EB64
:1048F0000C4144EB1C4422EA074C05FB07F206FB83
:1049000007F70CFB06F605FB0CFC16EB074642EB23
:10491000174216EB0C4642EB1C456A1854F1000195
:1049200048BF7047B619524141EB0101A3F10103A1
:10493000704795F0000F37D04FEA11424FEA144705
:1049400021EA024624EA074C02FB07F106FB07F7BF
:104950000CFB06F402FB0CFC14EB074441EB174183
:104960004FEA154714EB0C4441EB1C4125EA074C78
:1049700002FB07F506FB07F70CFB06F602FB0CFC37
:1049800016EB074645EB174516EB0C4645EB1C426C
:10499000121951F1000148BF7047B619524141EB5D
:1049A0000101A3F1010370474FEA14454FEA114793
:1049B00024EA054621EA074C05FB07F106FB07F749
:1049C0000CFB06F24FF0000605FB0CFC12EB074255
:1049D00041EB174112EB0C4251EB1C4148BF7047B1
:1049E000921841EB0101A3F101037047490050EA1D
:1049F000C12018BF04204A0D18BF40F0010040F24A
:104A0000FF72B2EB515F08BF40F00200012808BFFF
:104A1000052070474100080218BF04200A0E18BF85
:104A200040F001004FF07F4232EA010108BF40F040
:104A30000200012808BF052070472DE9F0414F1EF4
:104A400000EBC7010446D1E9000115461E4637F0C8
:104A500006020DD02A46334601F0FEF97F1E04EB14
:104A6000C703D3E9002300F0BFFF37F00602F1D1FE
:104A7000022F25D0042F13D0062F18BFBDE8F081D8
:104A80002A46334601F0E8F9D4E90A2300F0ACFFE6
:104A90002A46334601F0E0F9D4E9082300F0A4FFE8
:104AA0002A46334601F0D8F9D4E9062300F09CFFEA
:104AB0002A46334601F0D0F9D4E9042300F094FFEC
:104AC0002A46334601F0C8F9D4E9022300F08CFFEE
:104AD0002A46334601F0C0F9D4E90023BDE8F0418D
:104AE00000F082BF012202F066B800F07DBF002214
:104AF00013461046114601F027B80000024A002074
:104B0000110702F058B8000001FDFFFF012102F07B
:104B100080B801F0A7BC0021084601F00BBD6FF082
:104B20005E01080702F075B82DE9F04D0D461446F8
:104B30004FF07F41B1EB440F9EBF4FF0FF31296032
:104B4000BDE8F08D4FF0004040EA0421C4F3C750A7
:104B5000783810F01F024A4B4FEA601CC2F1200661
:104B60007B44C4F3C750A0F178004FEA601003EB18
:104B7000800053F82C3008BFD0E901C612D0D0F81D
:104B800004C093402CFA06F73B4387680CFA02FCFA
:104B900027FA06F8C06807FA02F2F0404CEA080C5F
:104BA00042EA0006A3FB0132ACFB01C0A6FB016197
:104BB00001EB0C068E4234BF4FF0010C4FF0000C9D
:104BC000C1186144BCF1000F02D0814202D903E058
:104BD000814201D2012000E00020104400F12002B7
:104BE0004FEA92188006CA0C40EA42304F03C5F8DB
:104BF000008001F07DFD8246384601F091FD6FF0A6
:104C0000120102F006F80746304601F089FD6FF008
:104C1000250101F0FEFF83463946504601F022FC93
:104C2000594601F01FFC00F500666FF30B06514674
:104C3000304601F017FF394601F014FF594601F0E4
:104C40007FFE104901F080FD07460F49304601F014
:104C50007BFD394601F006FC07460C49304601F061
:104C600073FD394601F0FEFB14F0004F08BFBDE8AC
:104C7000F08DC8F1805180F000402960BDE8F08DD2
:104C8000342A0000DB0FC92F22AAFD290000C92FFA
:104C900030380A2801D201207047002070470000F8
:104CA0002DE9F04D0546DFF8388221F000408D4FA8
:104CB00082B00C46404520DBA0EB080129430BD015
:104CC0008949884201DC10D17DB102B028462146D5
:104CD000BDE8F04DFFF706BF002CC7BF002001461E
:104CE0008248394602B0BDE8F08D0120FEF7B7FEDC
:104CF00002B0BDE8F04DFFF7FABE7D49884244DAC4
:104D00007C498142A1BF79487B4902B0BDE8F08D62
:104D10002A4623461046194601F09EF8834602466D
:104D200076480E460B4606217844FFF786FE5A4623
:104D3000334601F091F8074671488A465A46334691
:104D400004217844FFF779FE5A46334601F084F88F
:104D50000022434600F048FE02460B4638465146C4
:104D600000F0F2FE2A46234601F076F8654A664BCB
:104D700001F070F92A46234601F06CF902B05B4A53
:104D8000BDE8F04D5C4B01F065B9002C4FF000021E
:104D90004BDA464643462846214600F025FE4FF0B2
:104DA000FF3201F008FF0446024658480D460B4604
:104DB00006217844FFF741FE22462B4601F04CF8CD
:104DC000804653488A4622462B4604217844FFF702
:104DD00034FE22462B4601F03FF80022334600F015
:104DE00003FE06468B462046294600F079FD044620
:104DF0000D4632465B464046514600F0A5FE22462F
:104E00002B4601F029F83F4A3F4B01F015FA2246A4
:104E10002B4600F0E9FD012201F0CDFE02B03B4639
:104E2000BDE8F04D314A01F015B92D4B2846214619
:104E300001F010F94FF0FF3201F0BDFE05460E46BD
:104E400000F04EFD00270C4680463A460B4600F027
:104E5000CBFD82468B463A4623461046194600F063
:104E6000FBFF2A46334601F0F5F852465B4600F058
:104E70006BFE824627488B462A46334606217844F5
:104E8000FFF7DBFD2A46334600F0E6FFCDE90001DF
:104E900021482A46334604217844FFF7CEFD2A46AE
:104EA000334600F0D9FF00220D4B00F09DFD024675
:104EB0000B46DDE9000100F047FE4246234600F0C4
:104EC000CBFF52465B4600F08FFD3A46234600F08A
:104ED0008BFD02B00122BDE8F04D01F06CBE000078
:104EE0000000F03FFB2109400000F07F182D4454E2
:104EF0000000E03F0000603CFB21F93F7C27000000
:104F000092270000075C143326A6913CF22600008D
:104F100008270000262600003C2600002DE9F0416D
:104F200004464FF01A4000EB4400B0F1C85F204641
:104F300055D84FF0FC41B1EB440F1CD224F0004097
:104F40004FF07E5101F0FCFC4FF0FF3101F061FEAB
:104F5000054600F0EBFC14F0004F1DBF2C4F2D4E0A
:104F600080F00040002708BF3E464FF0404101F06E
:104F7000EBFB044605E0284F284E014601F0E4FB18
:104F800005462749284601F0DFFB264901F06AFA69
:104F9000294601F0D9FB244901F064FA294601F0C1
:104FA000D3FB224901F05EFA294601F0CDFB2049EE
:104FB00001F058FA80462946204601F0C5FB4146DB
:104FC00001F0C2FB05463146204601F0B9FC2946F6
:104FD00001F048FD3946BDE8F04101F043BA4FF019
:104FE000CC41B1EB440F84BF1248BDE8F0814FF0D3
:104FF0007F41B1EB440F03D2BDE8F041FFF786BD1E
:105000000120FEF72CFDBDE8F041FFF784BD000054
:105010000000494022AA7D3A0000C93F22AAFD397A
:1050200024FE1C3DC78AD83C1E67383D1B93993D22
:10503000AFAA2A3EDB0FC93F2DE9F04104464FF0ED
:105040000E4000EB4400B0F1506F204655D84FF0B1
:10505000FC41B1EB440F1CD224F000404FF07E51D4
:1050600001F06EFC4FF0FF3101F0D3FD054600F07A
:105070005DFC14F0004F1DBF2F4F304E80F00040FC
:105080002F4F08BF2F4E4FF0404101F05DFB04460B
:1050900005E000273E46014601F056FB05462A4939
:1050A000284601F051FB294901F0DCF9294601F0BD
:1050B0004BFB274901F0D6F9294601F045FB25496C
:1050C00001F0D0F9294601F03FFB234901F0CAF96C
:1050D00080462946204601F037FB414601F034FB6B
:1050E00005463146204601F0BDF9294601F0BAF9DE
:1050F0003946BDE8F04101F0B5B94FF0E441B1EBFC
:10510000440F08D9FFF786FC042808BFFFF707FD06
:105110002046BDE8F0814FF07F41B1EB440F03D250
:10512000BDE8F041FFF7F2BC0120FEF798FCBDE8B6
:10513000F041FFF7F0BC00000000C9BF22AAFDB992
:105140000000C93F22AAFD3924FE1C3DC78AD83C75
:105150001E67383D1B93993DAFAA2A3E2DE9F84FB3
:1051600004460D4621F0004000917349814211DC54
:105170007249884201DC06D12CB120462946BDE89F
:10518000F84FFFF7AFBC6E48002DCCBF6D496E499C
:10519000BDE8F88F6D49814211DD6D498142D8BF6C
:1051A0004FF0FF366DDD20462946FFF71FFC04282F
:1051B00008BFFFF7A3FC20462946BDE8F88F6549E4
:1051C000654F25F00045814233DD6449814219DD98
:1051D000002632464FF080432046294600F004FC6A
:1051E00080468A4601222046294601F0E4FC00223E
:1051F0003B4601F021F84246534600F0A5FC044628
:105200000D463EE001260022BA463B46204629468E
:1052100000F0EAFB80460F4600225346204629460E
:1052200001F00AF842463B4600F08EFC04460D466B
:1052300027E04B4981421BDDDFF828A1022600222E
:1052400053462046294600F007FE00223B4600F068
:10525000CBFB80460F46002253462046294600F0ED
:10526000EBFF42463B4600F06FFC04460D4608E06B
:10527000032622462B4600203B4900F065FC0446ED
:105280000D4622462B461046194600F0E5FD8B469A
:10529000824602460B4600F0DFFD074602463348D1
:1052A00088460B4606217844FFF7C7FB52465B460B
:1052B00000F0D2FD82462E488B463A4643460521F1
:1052C0007844FFF7BAFB3A46434600F0C5FD024674
:1052D0000B46002E504659460CDA00F085FB22465C
:1052E0002B4600F0B9FD01B022462B46BDE8F04F39
:1052F00000F0B0BE00F078FB22462B4600F0ACFD7B
:105300001C4A7A4402EBC603D3E9002300F094FF61
:1053100022462B4600F090FF174A7A4402EBC60360
:10532000D3E9002300F096FE009A002AB8BF81F06E
:105330000041BDE8F88F0000000010440000F07F3D
:10534000182D4454FB21F93FFB21F9BF0000DC3F3D
:105350000000203E0000F33F0000F03F0000E63F69
:10536000008003400000F83F0000F0BFB6220000BC
:105370007422000012220000DA2100002DE9F04D15
:105380009446CCF1000423F000464CEA0404524F4A
:1053900046EAD4749A46884621F00042BC4206D8B8
:1053A000454240EA050442EAD474BC4204D9BDE84F
:1053B000F04D6246FFF799BBAAF14055A5F17F6514
:1053C00055EA0C040BD0022404EAAA74434DDFF81A
:1053D00010E144EAD87452EA000B04D00CE0BDE8B6
:1053E000F04DFFF7BBBE002C14BF012CBDE8F08DC3
:1053F000022C30D0032C32D056EA0C0B0AD0BE421D
:1054000020D1BA4209D126F0804622F080423346AC
:10541000114617E000291ADB25E0DFF8C8B0FB448D
:10542000002C04BFDBE90001BDE8F08D012C02BFB8
:10543000DBE9000181F00041BDE8F08D022C0AD0CB
:10544000032C0CD0BA4212D1B8F1000F0BDA23486A
:105450002549BDE8F08D28462449BDE8F08D284651
:105460007146BDE8F08D1D482149BDE8F08D921BC5
:1054700012153C2AC4BF19481D490EDCBAF1000FB1
:10548000BEBF12F13C0F0020014606DB624600F071
:105490005BFB21F00041FFF761FE002C08BFBDE877
:1054A000F08D012C04BF81F00041BDE8F08D114A60
:1054B000114B022C07D000F0BFFE2A46BDE8F04D8C
:1054C0000A4B00F0B9BE00F0B7FE2A46BDE8F04D29
:1054D000064B00F0BFBD00000000F07F182D4454C3
:1054E000FB2109C06E210000FB21F9BFFB2109400F
:1054F000FB21F93F075C143326A6A13C2DE9F047B8
:105500004FF0684202EB40030C460546B3F1654F8D
:105510003CBF02EB4102B2F1654F7CD2C0F3C753EE
:10552000C1F3C7529A1A1B2A06DD10F0004F14BFB0
:1055300076487748BDE8F08712F11A0F17DA11F0B4
:10554000004F06D010F0004F0CBF72487248BDE803
:10555000F0872146284600F0EDFF0446FFF75AFA8F
:10556000042808BFFFF7DBFA2046BDE8F0874200B9
:10557000B2EB410F25D910F0004F19BF674F684EAD
:10558000684F694E224685F0004415460A4680F071
:10559000004110460A1A5200B2F1807F40D24840C2
:1055A0006249DFF88CA110F0004F18D04FF03F484F
:1055B000384601F057FA07465146304601F052FA94
:1055C00017E011F0004F04BF00263746E2D010F07C
:1055D000004F19BF574F584E584F594EDAE74FF00A
:1055E0007C58384600F03EFF07465146304600F0F2
:1055F00039FF06464146284601F0A6F8214600F04C
:1056000031FF82462146404601F09EF8294601F0CE
:1056100097F9514600E037E000F08CFF044604E0C3
:105620002146284600F086FF0446014601F08CF82A
:105630008046444901F088F8434900F013FF414691
:1056400001F082F8414900F00DFF414601F07CF87D
:105650003F4900F007FF414601F076F83D4900F070
:1056600001FF05464146204601F06EF8294601F04B
:105670006BF8314600F0F6FE214600F0F3FE3946A5
:10568000BDE8F04700F0EEBE4FF07F42B2EB400FB6
:1056900028BFB2EB410F03D2BDE8F047FFF739BA9C
:1056A00040EA01035B0008BF44F0FF410AD0B2EBBF
:1056B000400F08BFB2EB410F06D125F0804024F027
:1056C000804105460C4629E7B2EB400F12BF5FEA66
:1056D000410245F0FF4004F000413FF41FAF4A0093
:1056E00092EA40033FF51AAF002AACBF4FF09F4645
:1056F0004FF03E56314601F027F805463146204628
:1057000001F022F804462846214607E7DB0FC9BF0F
:10571000DB0FC93FDB0F4940DB0F49C00000C9BFA9
:1057200022AAFDB90000C93F22AAFD390060ED3E62
:10573000C30ACE37000049C022AA7DBA0000494002
:1057400022AA7D3A2DAD65BD8FB8D53D0FB511BEEE
:1057500061C84C3EA8AAAABE2DE9F84304460246F9
:1057600052486946B0EB420F09D94FF0E640B0EB22
:10577000420F94BF00204FF0FF30009030E04C4BC0
:1057800022F00040834271D94A49204600F0DCFFF4
:1057900001F0A6F8804600F08FFF00F003000090B3
:1057A0004549404600F0D0FF05464449404600F0D8
:1057B000CBFF06464249404600F0C6FF0746414936
:1057C000404600F0C1FF214601F0BAF8394601F029
:1057D00049F9314601F046F9294601F043F90446FA
:1057E0002546009C002C45DB294614F0010F084695
:1057F0001ED000F0A9FF0546334900F0A5FF33494C
:1058000000F030FE294600F09FFF314900F02AFEEB
:10581000294600F099FF4FF07E5100F023FE14F06E
:10582000020F08BFBDE8F88380F00040BDE8F883B0
:1058300000F08AFF0646274900F086FF264901F05E
:105840007FF8314600F080FF244900F00BFE31461E
:1058500000F07AFF294600F077FF294600F002FEAB
:1058600014F0020FE0D1BDE8F883FFE71046FFF720
:105870005BF9B4E76800B0F17F4F09D22846FFF723
:10588000C9F8042808BFFFF74AF92846BDE8F8839D
:1058900006D10120FEF7E3F8BDE8F843FFF73BB976
:1058A0002846BDE8F843FFF731B90000B61F927EE5
:1058B000490E494683F9223F1A61342C0020A23355
:1058C00000A0FD390000C93FB93AB2BACA9F2A3DCB
:1058D000DDFFFFBE336D4C39DA82083CA0AA2ABE38
:1058E0002DE9F04106460F4600F0C0FB041E0D46B0
:1058F00018BF0120284320F00040C0F17F6000F174
:10590000E040C00F0ED0301C18BF0120384320F0FB
:105910000040C0F17F6000F1E040C00F04BF0120F3
:10592000FEF79DF820462946BDE8F08170B5054692
:1059300001F010F8044620F00040C0F1FF40C00F15
:1059400008D025F00040C0F1FF40C00F04BF012087
:10595000FEF785F8204670BD10B500290AD00878FA
:10596000002807D005487844FEF738FC002801D00D
:10597000002010BD0248784410BD0000061D000044
:10598000FE1C000021F00042A2F16052B2F5801F1F
:1059900001F0004328BFD2F17F6C0BD95FEA001CF5
:1059A00043EAC20242EB507018BF704728BF20F094
:1059B00001007047B2F5801FBCBF184670474FEA20
:1059C000410C1CF5001F02D2084600F084BF70B5E0
:1059D00000F0ECFA00000089FFF7F6BF4FF000403E
:1059E000A0F580007047000010B591EA030F48BF92
:1059F00083F0004300F12884841A71EB030C05D274
:105A0000121943EB0C03001B61EB0C01DFF824E1DE
:105A10004FEA1154A4EB135C1EEA430F18BF9EEA31
:105A2000445F73D023EA0E03DCF1200E21EA045117
:105A300043F4801332D322FA0CFE10EB0E0023FA4B
:105A40000CFE41EB0E01CCF1200E03FA0EFE10EB22
:105A50000E0051F10001B1F5801FCCF1200E32D2C1
:105A600001EB045112FA0EF2BDE8104058BF704726
:105A7000401C38BF5FEA420218BF7047002814BFBD
:105A800020F0010041F100014FEA410313F5001F2E
:105A900038BF7047A1F1C04100F0D6BA012A43EBEC
:105AA0000302ACF1200CDCF11F0E32BF4FF0000EF0
:105AB00023FA0CF310EB030041EB0451B4EB115F3C
:105AC000D0D0A1EB045101F5801149085FEA300004
:105AD00001EB04510ED350F1000038BF12FA0EFE54
